{
    "_format": "hh-sol-artifact-1",
    "contractName": "RobopunksNFT",
    "sourceName": "contracts/RobopunksNFT.sol",
    "abi": [
        {
            "inputs": [],
            "stateMutability": "payable",
            "type": "constructor"
        },
        {
            "anonymous": false,
            "inputs": [
                {
                    "indexed": true,
                    "internalType": "address",
                    "name": "owner",
                    "type": "address"
                },
                {
                    "indexed": true,
                    "internalType": "address",
                    "name": "approved",
                    "type": "address"
                },
                {
                    "indexed": true,
                    "internalType": "uint256",
                    "name": "tokenId",
                    "type": "uint256"
                }
            ],
            "name": "Approval",
            "type": "event"
        },
        {
            "anonymous": false,
            "inputs": [
                {
                    "indexed": true,
                    "internalType": "address",
                    "name": "owner",
                    "type": "address"
                },
                {
                    "indexed": true,
                    "internalType": "address",
                    "name": "operator",
                    "type": "address"
                },
                {
                    "indexed": false,
                    "internalType": "bool",
                    "name": "approved",
                    "type": "bool"
                }
            ],
            "name": "ApprovalForAll",
            "type": "event"
        },
        {
            "anonymous": false,
            "inputs": [
                {
                    "indexed": true,
                    "internalType": "address",
                    "name": "previousOwner",
                    "type": "address"
                },
                {
                    "indexed": true,
                    "internalType": "address",
                    "name": "newOwner",
                    "type": "address"
                }
            ],
            "name": "OwnershipTransferred",
            "type": "event"
        },
        {
            "anonymous": false,
            "inputs": [
                {
                    "indexed": true,
                    "internalType": "address",
                    "name": "from",
                    "type": "address"
                },
                {
                    "indexed": true,
                    "internalType": "address",
                    "name": "to",
                    "type": "address"
                },
                {
                    "indexed": true,
                    "internalType": "uint256",
                    "name": "tokenId",
                    "type": "uint256"
                }
            ],
            "name": "Transfer",
            "type": "event"
        },
        {
            "inputs": [
                {
                    "internalType": "address",
                    "name": "to",
                    "type": "address"
                },
                {
                    "internalType": "uint256",
                    "name": "tokenId",
                    "type": "uint256"
                }
            ],
            "name": "approve",
            "outputs": [],
            "stateMutability": "nonpayable",
            "type": "function"
        },
        {
            "inputs": [
                {
                    "internalType": "address",
                    "name": "owner",
                    "type": "address"
                }
            ],
            "name": "balanceOf",
            "outputs": [
                {
                    "internalType": "uint256",
                    "name": "",
                    "type": "uint256"
                }
            ],
            "stateMutability": "view",
            "type": "function"
        },
        {
            "inputs": [
                {
                    "internalType": "uint256",
                    "name": "tokenId",
                    "type": "uint256"
                }
            ],
            "name": "getApproved",
            "outputs": [
                {
                    "internalType": "address",
                    "name": "",
                    "type": "address"
                }
            ],
            "stateMutability": "view",
            "type": "function"
        },
        {
            "inputs": [
                {
                    "internalType": "address",
                    "name": "owner",
                    "type": "address"
                },
                {
                    "internalType": "address",
                    "name": "operator",
                    "type": "address"
                }
            ],
            "name": "isApprovedForAll",
            "outputs": [
                {
                    "internalType": "bool",
                    "name": "",
                    "type": "bool"
                }
            ],
            "stateMutability": "view",
            "type": "function"
        },
        {
            "inputs": [],
            "name": "isPublicMintEnable",
            "outputs": [
                {
                    "internalType": "bool",
                    "name": "",
                    "type": "bool"
                }
            ],
            "stateMutability": "view",
            "type": "function"
        },
        {
            "inputs": [],
            "name": "maxPerWallet",
            "outputs": [
                {
                    "internalType": "uint256",
                    "name": "",
                    "type": "uint256"
                }
            ],
            "stateMutability": "view",
            "type": "function"
        },
        {
            "inputs": [],
            "name": "maxSupply",
            "outputs": [
                {
                    "internalType": "uint256",
                    "name": "",
                    "type": "uint256"
                }
            ],
            "stateMutability": "view",
            "type": "function"
        },
        {
            "inputs": [
                {
                    "internalType": "uint256",
                    "name": "quantity_",
                    "type": "uint256"
                }
            ],
            "name": "mint",
            "outputs": [],
            "stateMutability": "payable",
            "type": "function"
        },
        {
            "inputs": [],
            "name": "mintPrice",
            "outputs": [
                {
                    "internalType": "uint256",
                    "name": "",
                    "type": "uint256"
                }
            ],
            "stateMutability": "view",
            "type": "function"
        },
        {
            "inputs": [],
            "name": "name",
            "outputs": [
                {
                    "internalType": "string",
                    "name": "",
                    "type": "string"
                }
            ],
            "stateMutability": "view",
            "type": "function"
        },
        {
            "inputs": [],
            "name": "owner",
            "outputs": [
                {
                    "internalType": "address",
                    "name": "",
                    "type": "address"
                }
            ],
            "stateMutability": "view",
            "type": "function"
        },
        {
            "inputs": [
                {
                    "internalType": "uint256",
                    "name": "tokenId",
                    "type": "uint256"
                }
            ],
            "name": "ownerOf",
            "outputs": [
                {
                    "internalType": "address",
                    "name": "",
                    "type": "address"
                }
            ],
            "stateMutability": "view",
            "type": "function"
        },
        {
            "inputs": [],
            "name": "renounceOwnership",
            "outputs": [],
            "stateMutability": "nonpayable",
            "type": "function"
        },
        {
            "inputs": [
                {
                    "internalType": "address",
                    "name": "from",
                    "type": "address"
                },
                {
                    "internalType": "address",
                    "name": "to",
                    "type": "address"
                },
                {
                    "internalType": "uint256",
                    "name": "tokenId",
                    "type": "uint256"
                }
            ],
            "name": "safeTransferFrom",
            "outputs": [],
            "stateMutability": "nonpayable",
            "type": "function"
        },
        {
            "inputs": [
                {
                    "internalType": "address",
                    "name": "from",
                    "type": "address"
                },
                {
                    "internalType": "address",
                    "name": "to",
                    "type": "address"
                },
                {
                    "internalType": "uint256",
                    "name": "tokenId",
                    "type": "uint256"
                },
                {
                    "internalType": "bytes",
                    "name": "data",
                    "type": "bytes"
                }
            ],
            "name": "safeTransferFrom",
            "outputs": [],
            "stateMutability": "nonpayable",
            "type": "function"
        },
        {
            "inputs": [
                {
                    "internalType": "address",
                    "name": "operator",
                    "type": "address"
                },
                {
                    "internalType": "bool",
                    "name": "approved",
                    "type": "bool"
                }
            ],
            "name": "setApprovalForAll",
            "outputs": [],
            "stateMutability": "nonpayable",
            "type": "function"
        },
        {
            "inputs": [
                {
                    "internalType": "string",
                    "name": "baseTokenUri_",
                    "type": "string"
                }
            ],
            "name": "setBaseTokenUri",
            "outputs": [],
            "stateMutability": "nonpayable",
            "type": "function"
        },
        {
            "inputs": [
                {
                    "internalType": "bool",
                    "name": "isPublicMintEnable_",
                    "type": "bool"
                }
            ],
            "name": "setIsPublicMintEnabled",
            "outputs": [],
            "stateMutability": "nonpayable",
            "type": "function"
        },
        {
            "inputs": [
                {
                    "internalType": "bytes4",
                    "name": "interfaceId",
                    "type": "bytes4"
                }
            ],
            "name": "supportsInterface",
            "outputs": [
                {
                    "internalType": "bool",
                    "name": "",
                    "type": "bool"
                }
            ],
            "stateMutability": "view",
            "type": "function"
        },
        {
            "inputs": [],
            "name": "symbol",
            "outputs": [
                {
                    "internalType": "string",
                    "name": "",
                    "type": "string"
                }
            ],
            "stateMutability": "view",
            "type": "function"
        },
        {
            "inputs": [
                {
                    "internalType": "uint256",
                    "name": "tokenId_",
                    "type": "uint256"
                }
            ],
            "name": "tokenURI",
            "outputs": [
                {
                    "internalType": "string",
                    "name": "",
                    "type": "string"
                }
            ],
            "stateMutability": "view",
            "type": "function"
        },
        {
            "inputs": [],
            "name": "totalSupply",
            "outputs": [
                {
                    "internalType": "uint256",
                    "name": "",
                    "type": "uint256"
                }
            ],
            "stateMutability": "view",
            "type": "function"
        },
        {
            "inputs": [
                {
                    "internalType": "address",
                    "name": "from",
                    "type": "address"
                },
                {
                    "internalType": "address",
                    "name": "to",
                    "type": "address"
                },
                {
                    "internalType": "uint256",
                    "name": "tokenId",
                    "type": "uint256"
                }
            ],
            "name": "transferFrom",
            "outputs": [],
            "stateMutability": "nonpayable",
            "type": "function"
        },
        {
            "inputs": [
                {
                    "internalType": "address",
                    "name": "newOwner",
                    "type": "address"
                }
            ],
            "name": "transferOwnership",
            "outputs": [],
            "stateMutability": "nonpayable",
            "type": "function"
        },
        {
            "inputs": [
                {
                    "internalType": "address",
                    "name": "",
                    "type": "address"
                }
            ],
            "name": "walletMints",
            "outputs": [
                {
                    "internalType": "uint256",
                    "name": "",
                    "type": "uint256"
                }
            ],
            "stateMutability": "view",
            "type": "function"
        },
        {
            "inputs": [],
            "name": "withdraw",
            "outputs": [],
            "stateMutability": "nonpayable",
            "type": "function"
        },
        {
            "inputs": [],
            "name": "withdrawWallet",
            "outputs": [
                {
                    "internalType": "address payable",
                    "name": "",
                    "type": "address"
                }
            ],
            "stateMutability": "view",
            "type": "function"
        }
    ],
    "bytecode": "0x60806040526040518060400160405280600981526020017f526f626f50756e6b7300000000000000000000000000000000000000000000008152506040518060400160405280600281526020017f5250000000000000000000000000000000000000000000000000000000000000815250816000908051906020019062000088929190620001bf565b508060019080519060200190620000a1929190620001bf565b505050620000c4620000b8620000f160201b60201c565b620000f960201b60201c565b66470de4df82000060078190555060006008819055506103e86009819055506003600a81905550620002d4565b600033905090565b6000600660009054906101000a900473ffffffffffffffffffffffffffffffffffffffff16905081600660006101000a81548173ffffffffffffffffffffffffffffffffffffffff021916908373ffffffffffffffffffffffffffffffffffffffff1602179055508173ffffffffffffffffffffffffffffffffffffffff168173ffffffffffffffffffffffffffffffffffffffff167f8be0079c531659141344cd1fd0a4f28419497f9722a3daafe3b4186f6b6457e060405160405180910390a35050565b828054620001cd906200029e565b90600052602060002090601f016020900481019282620001f157600085556200023d565b82601f106200020c57805160ff19168380011785556200023d565b828001600101855582156200023d579182015b828111156200023c5782518255916020019190600101906200021f565b5b5090506200024c919062000250565b5090565b5b808211156200026b57600081600090555060010162000251565b5090565b7f4e487b7100000000000000000000000000000000000000000000000000000000600052602260045260246000fd5b60006002820490506001821680620002b757607f821691505b60208210811415620002ce57620002cd6200026f565b5b50919050565b61348f80620002e46000396000f3fe60806040526004361061019c5760003560e01c8063715018a6116100ec578063a22cb4651161008a578063d5abeb0111610064578063d5abeb0114610593578063e985e9c5146105be578063f0293fd3146105fb578063f2fde38b146106385761019c565b8063a22cb46514610504578063b88d4fde1461052d578063c87b56dd146105565761019c565b80638da5cb5b116100c65780638da5cb5b1461046957806395652cfa1461049457806395d89b41146104bd578063a0712d68146104e85761019c565b8063715018a6146103fc57806385d178f41461041357806389f0d4011461043e5761019c565b806323b872dd11610159578063453c231011610133578063453c23101461032c5780636352211e146103575780636817c76c1461039457806370a08231146103bf5761019c565b806323b872dd146102c35780633ccfd60b146102ec57806342842e0e146103035761019c565b806301ffc9a7146101a157806306fdde03146101de578063081812fc14610209578063095ea7b31461024657806318160ddd1461026f5780632373ac221461029a575b600080fd5b3480156101ad57600080fd5b506101c860048036038101906101c39190611fc7565b610661565b6040516101d5919061200f565b60405180910390f35b3480156101ea57600080fd5b506101f3610743565b60405161020091906120c3565b60405180910390f35b34801561021557600080fd5b50610230600480360381019061022b919061211b565b6107d5565b60405161023d9190612189565b60405180910390f35b34801561025257600080fd5b5061026d600480360381019061026891906121d0565b61081b565b005b34801561027b57600080fd5b50610284610933565b604051610291919061221f565b60405180910390f35b3480156102a657600080fd5b506102c160048036038101906102bc9190612266565b610939565b005b3480156102cf57600080fd5b506102ea60048036038101906102e59190612293565b61095e565b005b3480156102f857600080fd5b506103016109be565b005b34801561030f57600080fd5b5061032a60048036038101906103259190612293565b610a97565b005b34801561033857600080fd5b50610341610ab7565b60405161034e919061221f565b60405180910390f35b34801561036357600080fd5b5061037e6004803603810190610379919061211b565b610abd565b60405161038b9190612189565b60405180910390f35b3480156103a057600080fd5b506103a9610b6f565b6040516103b6919061221f565b60405180910390f35b3480156103cb57600080fd5b506103e660048036038101906103e191906122e6565b610b75565b6040516103f3919061221f565b60405180910390f35b34801561040857600080fd5b50610411610c2d565b005b34801561041f57600080fd5b50610428610c41565b6040516104359190612334565b60405180910390f35b34801561044a57600080fd5b50610453610c67565b604051610460919061200f565b60405180910390f35b34801561047557600080fd5b5061047e610c7a565b60405161048b9190612189565b60405180910390f35b3480156104a057600080fd5b506104bb60048036038101906104b691906123b4565b610ca4565b005b3480156104c957600080fd5b506104d2610cc2565b6040516104df91906120c3565b60405180910390f35b61050260048036038101906104fd919061211b565b610d54565b005b34801561051057600080fd5b5061052b60048036038101906105269190612401565b610f2b565b005b34801561053957600080fd5b50610554600480360381019061054f9190612571565b610f41565b005b34801561056257600080fd5b5061057d6004803603810190610578919061211b565b610fa3565b60405161058a91906120c3565b60405180910390f35b34801561059f57600080fd5b506105a861101f565b6040516105b5919061221f565b60405180910390f35b3480156105ca57600080fd5b506105e560048036038101906105e091906125f4565b611025565b6040516105f2919061200f565b60405180910390f35b34801561060757600080fd5b50610622600480360381019061061d91906122e6565b6110b9565b60405161062f919061221f565b60405180910390f35b34801561064457600080fd5b5061065f600480360381019061065a91906122e6565b6110d1565b005b60007f80ac58cd000000000000000000000000000000000000000000000000000000007bffffffffffffffffffffffffffffffffffffffffffffffffffffffff1916827bffffffffffffffffffffffffffffffffffffffffffffffffffffffff1916148061072c57507f5b5e139f000000000000000000000000000000000000000000000000000000007bffffffffffffffffffffffffffffffffffffffffffffffffffffffff1916827bffffffffffffffffffffffffffffffffffffffffffffffffffffffff1916145b8061073c575061073b82611155565b5b9050919050565b60606000805461075290612663565b80601f016020809104026020016040519081016040528092919081815260200182805461077e90612663565b80156107cb5780601f106107a0576101008083540402835291602001916107cb565b820191906000526020600020905b8154815290600101906020018083116107ae57829003601f168201915b5050505050905090565b60006107e0826111bf565b6004600083815260200190815260200160002060009054906101000a900473ffffffffffffffffffffffffffffffffffffffff169050919050565b600061082682610abd565b90508073ffffffffffffffffffffffffffffffffffffffff168373ffffffffffffffffffffffffffffffffffffffff161415610897576040517f08c379a000000000000000000000000000000000000000000000000000000000815260040161088e90612707565b60405180910390fd5b8073ffffffffffffffffffffffffffffffffffffffff166108b661120a565b73ffffffffffffffffffffffffffffffffffffffff1614806108e557506108e4816108df61120a565b611025565b5b610924576040517f08c379a000000000000000000000000000000000000000000000000000000000815260040161091b90612799565b60405180910390fd5b61092e8383611212565b505050565b60085481565b6109416112cb565b80600b60006101000a81548160ff02191690831515021790555050565b61096f61096961120a565b82611349565b6109ae576040517f08c379a00000000000000000000000000000000000000000000000000000000081526004016109a59061282b565b60405180910390fd5b6109b98383836113de565b505050565b6109c66112cb565b6000600d60009054906101000a900473ffffffffffffffffffffffffffffffffffffffff1673ffffffffffffffffffffffffffffffffffffffff1647604051610a0e9061287c565b60006040518083038185875af1925050503d8060008114610a4b576040519150601f19603f3d011682016040523d82523d6000602084013e610a50565b606091505b5050905080610a94576040517f08c379a0000000000000000000000000000000000000000000000000000000008152600401610a8b906128dd565b60405180910390fd5b50565b610ab283838360405180602001604052806000815250610f41565b505050565b600a5481565b6000806002600084815260200190815260200160002060009054906101000a900473ffffffffffffffffffffffffffffffffffffffff169050600073ffffffffffffffffffffffffffffffffffffffff168173ffffffffffffffffffffffffffffffffffffffff161415610b66576040517f08c379a0000000000000000000000000000000000000000000000000000000008152600401610b5d90612949565b60405180910390fd5b80915050919050565b60075481565b60008073ffffffffffffffffffffffffffffffffffffffff168273ffffffffffffffffffffffffffffffffffffffff161415610be6576040517f08c379a0000000000000000000000000000000000000000000000000000000008152600401610bdd906129db565b60405180910390fd5b600360008373ffffffffffffffffffffffffffffffffffffffff1673ffffffffffffffffffffffffffffffffffffffff168152602001908152602001600020549050919050565b610c356112cb565b610c3f6000611645565b565b600d60009054906101000a900473ffffffffffffffffffffffffffffffffffffffff1681565b600b60009054906101000a900460ff1681565b6000600660009054906101000a900473ffffffffffffffffffffffffffffffffffffffff16905090565b610cac6112cb565b8181600c9190610cbd929190611eb8565b505050565b606060018054610cd190612663565b80601f0160208091040260200160405190810160405280929190818152602001828054610cfd90612663565b8015610d4a5780601f10610d1f57610100808354040283529160200191610d4a565b820191906000526020600020905b815481529060010190602001808311610d2d57829003601f168201915b5050505050905090565b600b60009054906101000a900460ff16610da3576040517f08c379a0000000000000000000000000000000000000000000000000000000008152600401610d9a90612a47565b60405180910390fd5b60075481610db19190612a96565b3414610df2576040517f08c379a0000000000000000000000000000000000000000000000000000000008152600401610de990612b3c565b60405180910390fd5b60095481600854610e039190612b5c565b1115610e44576040517f08c379a0000000000000000000000000000000000000000000000000000000008152600401610e3b90612bfe565b60405180910390fd5b600a5481600e60003373ffffffffffffffffffffffffffffffffffffffff1673ffffffffffffffffffffffffffffffffffffffff16815260200190815260200160002054610e929190612b5c565b1115610ed3576040517f08c379a0000000000000000000000000000000000000000000000000000000008152600401610eca90612c6a565b60405180910390fd5b60005b81811015610f275760006001600854610eef9190612b5c565b905060086000815480929190610f0490612c8a565b9190505550610f13338261170b565b508080610f1f90612c8a565b915050610ed6565b5050565b610f3d610f3661120a565b8383611729565b5050565b610f52610f4c61120a565b83611349565b610f91576040517f08c379a0000000000000000000000000000000000000000000000000000000008152600401610f889061282b565b60405180910390fd5b610f9d84848484611896565b50505050565b6060610fae826118f2565b610fed576040517f08c379a0000000000000000000000000000000000000000000000000000000008152600401610fe490612d1f565b60405180910390fd5b600c610ff88361195e565b604051602001611009929190612e5b565b6040516020818303038152906040529050919050565b60095481565b6000600560008473ffffffffffffffffffffffffffffffffffffffff1673ffffffffffffffffffffffffffffffffffffffff16815260200190815260200160002060008373ffffffffffffffffffffffffffffffffffffffff1673ffffffffffffffffffffffffffffffffffffffff16815260200190815260200160002060009054906101000a900460ff16905092915050565b600e6020528060005260406000206000915090505481565b6110d96112cb565b600073ffffffffffffffffffffffffffffffffffffffff168173ffffffffffffffffffffffffffffffffffffffff161415611149576040517f08c379a000000000000000000000000000000000000000000000000000000000815260040161114090612efc565b60405180910390fd5b61115281611645565b50565b60007f01ffc9a7000000000000000000000000000000000000000000000000000000007bffffffffffffffffffffffffffffffffffffffffffffffffffffffff1916827bffffffffffffffffffffffffffffffffffffffffffffffffffffffff1916149050919050565b6111c8816118f2565b611207576040517f08c379a00000000000000000000000000000000000000000000000000000000081526004016111fe90612949565b60405180910390fd5b50565b600033905090565b816004600083815260200190815260200160002060006101000a81548173ffffffffffffffffffffffffffffffffffffffff021916908373ffffffffffffffffffffffffffffffffffffffff160217905550808273ffffffffffffffffffffffffffffffffffffffff1661128583610abd565b73ffffffffffffffffffffffffffffffffffffffff167f8c5be1e5ebec7d5bd14f71427d1e84f3dd0314c0f7b2291e5b200ac8c7c3b92560405160405180910390a45050565b6112d361120a565b73ffffffffffffffffffffffffffffffffffffffff166112f1610c7a565b73ffffffffffffffffffffffffffffffffffffffff1614611347576040517f08c379a000000000000000000000000000000000000000000000000000000000815260040161133e90612f68565b60405180910390fd5b565b60008061135583610abd565b90508073ffffffffffffffffffffffffffffffffffffffff168473ffffffffffffffffffffffffffffffffffffffff16148061139757506113968185611025565b5b806113d557508373ffffffffffffffffffffffffffffffffffffffff166113bd846107d5565b73ffffffffffffffffffffffffffffffffffffffff16145b91505092915050565b8273ffffffffffffffffffffffffffffffffffffffff166113fe82610abd565b73ffffffffffffffffffffffffffffffffffffffff1614611454576040517f08c379a000000000000000000000000000000000000000000000000000000000815260040161144b90612ffa565b60405180910390fd5b600073ffffffffffffffffffffffffffffffffffffffff168273ffffffffffffffffffffffffffffffffffffffff1614156114c4576040517f08c379a00000000000000000000000000000000000000000000000000000000081526004016114bb9061308c565b60405180910390fd5b6114cf838383611abf565b6114da600082611212565b6001600360008573ffffffffffffffffffffffffffffffffffffffff1673ffffffffffffffffffffffffffffffffffffffff168152602001908152602001600020600082825461152a91906130ac565b925050819055506001600360008473ffffffffffffffffffffffffffffffffffffffff1673ffffffffffffffffffffffffffffffffffffffff16815260200190815260200160002060008282546115819190612b5c565b92505081905550816002600083815260200190815260200160002060006101000a81548173ffffffffffffffffffffffffffffffffffffffff021916908373ffffffffffffffffffffffffffffffffffffffff160217905550808273ffffffffffffffffffffffffffffffffffffffff168473ffffffffffffffffffffffffffffffffffffffff167fddf252ad1be2c89b69c2b068fc378daa952ba7f163c4a11628f55a4df523b3ef60405160405180910390a4611640838383611ac4565b505050565b6000600660009054906101000a900473ffffffffffffffffffffffffffffffffffffffff16905081600660006101000a81548173ffffffffffffffffffffffffffffffffffffffff021916908373ffffffffffffffffffffffffffffffffffffffff1602179055508173ffffffffffffffffffffffffffffffffffffffff168173ffffffffffffffffffffffffffffffffffffffff167f8be0079c531659141344cd1fd0a4f28419497f9722a3daafe3b4186f6b6457e060405160405180910390a35050565b611725828260405180602001604052806000815250611ac9565b5050565b8173ffffffffffffffffffffffffffffffffffffffff168373ffffffffffffffffffffffffffffffffffffffff161415611798576040517f08c379a000000000000000000000000000000000000000000000000000000000815260040161178f9061312c565b60405180910390fd5b80600560008573ffffffffffffffffffffffffffffffffffffffff1673ffffffffffffffffffffffffffffffffffffffff16815260200190815260200160002060008473ffffffffffffffffffffffffffffffffffffffff1673ffffffffffffffffffffffffffffffffffffffff16815260200190815260200160002060006101000a81548160ff0219169083151502179055508173ffffffffffffffffffffffffffffffffffffffff168373ffffffffffffffffffffffffffffffffffffffff167f17307eab39ab6107e8899845ad3d59bd9653f200f220920489ca2b5937696c3183604051611889919061200f565b60405180910390a3505050565b6118a18484846113de565b6118ad84848484611b24565b6118ec576040517f08c379a00000000000000000000000000000000000000000000000000000000081526004016118e3906131be565b60405180910390fd5b50505050565b60008073ffffffffffffffffffffffffffffffffffffffff166002600084815260200190815260200160002060009054906101000a900473ffffffffffffffffffffffffffffffffffffffff1673ffffffffffffffffffffffffffffffffffffffff1614159050919050565b606060008214156119a6576040518060400160405280600181526020017f30000000000000000000000000000000000000000000000000000000000000008152509050611aba565b600082905060005b600082146119d85780806119c190612c8a565b915050600a826119d1919061320d565b91506119ae565b60008167ffffffffffffffff8111156119f4576119f3612446565b5b6040519080825280601f01601f191660200182016040528015611a265781602001600182028036833780820191505090505b5090505b60008514611ab357600182611a3f91906130ac565b9150600a85611a4e919061323e565b6030611a5a9190612b5c565b60f81b818381518110611a7057611a6f61326f565b5b60200101907effffffffffffffffffffffffffffffffffffffffffffffffffffffffffffff1916908160001a905350600a85611aac919061320d565b9450611a2a565b8093505050505b919050565b505050565b505050565b611ad38383611cbb565b611ae06000848484611b24565b611b1f576040517f08c379a0000000000000000000000000000000000000000000000000000000008152600401611b16906131be565b60405180910390fd5b505050565b6000611b458473ffffffffffffffffffffffffffffffffffffffff16611e95565b15611cae578373ffffffffffffffffffffffffffffffffffffffff1663150b7a02611b6e61120a565b8786866040518563ffffffff1660e01b8152600401611b9094939291906132f3565b602060405180830381600087803b158015611baa57600080fd5b505af1925050508015611bdb57506040513d601f19601f82011682018060405250810190611bd89190613354565b60015b611c5e573d8060008114611c0b576040519150601f19603f3d011682016040523d82523d6000602084013e611c10565b606091505b50600081511415611c56576040517f08c379a0000000000000000000000000000000000000000000000000000000008152600401611c4d906131be565b60405180910390fd5b805181602001fd5b63150b7a0260e01b7bffffffffffffffffffffffffffffffffffffffffffffffffffffffff1916817bffffffffffffffffffffffffffffffffffffffffffffffffffffffff191614915050611cb3565b600190505b949350505050565b600073ffffffffffffffffffffffffffffffffffffffff168273ffffffffffffffffffffffffffffffffffffffff161415611d2b576040517f08c379a0000000000000000000000000000000000000000000000000000000008152600401611d22906133cd565b60405180910390fd5b611d34816118f2565b15611d74576040517f08c379a0000000000000000000000000000000000000000000000000000000008152600401611d6b90613439565b60405180910390fd5b611d8060008383611abf565b6001600360008473ffffffffffffffffffffffffffffffffffffffff1673ffffffffffffffffffffffffffffffffffffffff1681526020019081526020016000206000828254611dd09190612b5c565b92505081905550816002600083815260200190815260200160002060006101000a81548173ffffffffffffffffffffffffffffffffffffffff021916908373ffffffffffffffffffffffffffffffffffffffff160217905550808273ffffffffffffffffffffffffffffffffffffffff16600073ffffffffffffffffffffffffffffffffffffffff167fddf252ad1be2c89b69c2b068fc378daa952ba7f163c4a11628f55a4df523b3ef60405160405180910390a4611e9160008383611ac4565b5050565b6000808273ffffffffffffffffffffffffffffffffffffffff163b119050919050565b828054611ec490612663565b90600052602060002090601f016020900481019282611ee65760008555611f2d565b82601f10611eff57803560ff1916838001178555611f2d565b82800160010185558215611f2d579182015b82811115611f2c578235825591602001919060010190611f11565b5b509050611f3a9190611f3e565b5090565b5b80821115611f57576000816000905550600101611f3f565b5090565b6000604051905090565b600080fd5b600080fd5b60007fffffffff0000000000000000000000000000000000000000000000000000000082169050919050565b611fa481611f6f565b8114611faf57600080fd5b50565b600081359050611fc181611f9b565b92915050565b600060208284031215611fdd57611fdc611f65565b5b6000611feb84828501611fb2565b91505092915050565b60008115159050919050565b61200981611ff4565b82525050565b60006020820190506120246000830184612000565b92915050565b600081519050919050565b600082825260208201905092915050565b60005b83811015612064578082015181840152602081019050612049565b83811115612073576000848401525b50505050565b6000601f19601f8301169050919050565b60006120958261202a565b61209f8185612035565b93506120af818560208601612046565b6120b881612079565b840191505092915050565b600060208201905081810360008301526120dd818461208a565b905092915050565b6000819050919050565b6120f8816120e5565b811461210357600080fd5b50565b600081359050612115816120ef565b92915050565b60006020828403121561213157612130611f65565b5b600061213f84828501612106565b91505092915050565b600073ffffffffffffffffffffffffffffffffffffffff82169050919050565b600061217382612148565b9050919050565b61218381612168565b82525050565b600060208201905061219e600083018461217a565b92915050565b6121ad81612168565b81146121b857600080fd5b50565b6000813590506121ca816121a4565b92915050565b600080604083850312156121e7576121e6611f65565b5b60006121f5858286016121bb565b925050602061220685828601612106565b9150509250929050565b612219816120e5565b82525050565b60006020820190506122346000830184612210565b92915050565b61224381611ff4565b811461224e57600080fd5b50565b6000813590506122608161223a565b92915050565b60006020828403121561227c5761227b611f65565b5b600061228a84828501612251565b91505092915050565b6000806000606084860312156122ac576122ab611f65565b5b60006122ba868287016121bb565b93505060206122cb868287016121bb565b92505060406122dc86828701612106565b9150509250925092565b6000602082840312156122fc576122fb611f65565b5b600061230a848285016121bb565b91505092915050565b600061231e82612148565b9050919050565b61232e81612313565b82525050565b60006020820190506123496000830184612325565b92915050565b600080fd5b600080fd5b600080fd5b60008083601f8401126123745761237361234f565b5b8235905067ffffffffffffffff81111561239157612390612354565b5b6020830191508360018202830111156123ad576123ac612359565b5b9250929050565b600080602083850312156123cb576123ca611f65565b5b600083013567ffffffffffffffff8111156123e9576123e8611f6a565b5b6123f58582860161235e565b92509250509250929050565b6000806040838503121561241857612417611f65565b5b6000612426858286016121bb565b925050602061243785828601612251565b9150509250929050565b600080fd5b7f4e487b7100000000000000000000000000000000000000000000000000000000600052604160045260246000fd5b61247e82612079565b810181811067ffffffffffffffff8211171561249d5761249c612446565b5b80604052505050565b60006124b0611f5b565b90506124bc8282612475565b919050565b600067ffffffffffffffff8211156124dc576124db612446565b5b6124e582612079565b9050602081019050919050565b82818337600083830152505050565b600061251461250f846124c1565b6124a6565b9050828152602081018484840111156125305761252f612441565b5b61253b8482856124f2565b509392505050565b600082601f8301126125585761255761234f565b5b8135612568848260208601612501565b91505092915050565b6000806000806080858703121561258b5761258a611f65565b5b6000612599878288016121bb565b94505060206125aa878288016121bb565b93505060406125bb87828801612106565b925050606085013567ffffffffffffffff8111156125dc576125db611f6a565b5b6125e887828801612543565b91505092959194509250565b6000806040838503121561260b5761260a611f65565b5b6000612619858286016121bb565b925050602061262a858286016121bb565b9150509250929050565b7f4e487b7100000000000000000000000000000000000000000000000000000000600052602260045260246000fd5b6000600282049050600182168061267b57607f821691505b6020821081141561268f5761268e612634565b5b50919050565b7f4552433732313a20617070726f76616c20746f2063757272656e74206f776e6560008201527f7200000000000000000000000000000000000000000000000000000000000000602082015250565b60006126f1602183612035565b91506126fc82612695565b604082019050919050565b60006020820190508181036000830152612720816126e4565b9050919050565b7f4552433732313a20617070726f76652063616c6c6572206973206e6f7420746f60008201527f6b656e206f776e6572206e6f7220617070726f76656420666f7220616c6c0000602082015250565b6000612783603e83612035565b915061278e82612727565b604082019050919050565b600060208201905081810360008301526127b281612776565b9050919050565b7f4552433732313a2063616c6c6572206973206e6f7420746f6b656e206f776e6560008201527f72206e6f7220617070726f766564000000000000000000000000000000000000602082015250565b6000612815602e83612035565b9150612820826127b9565b604082019050919050565b6000602082019050818103600083015261284481612808565b9050919050565b600081905092915050565b50565b600061286660008361284b565b915061287182612856565b600082019050919050565b600061288782612859565b9150819050919050565b7f7769746864726177206661696c65640000000000000000000000000000000000600082015250565b60006128c7600f83612035565b91506128d282612891565b602082019050919050565b600060208201905081810360008301526128f6816128ba565b9050919050565b7f4552433732313a20696e76616c696420746f6b656e2049440000000000000000600082015250565b6000612933601883612035565b915061293e826128fd565b602082019050919050565b6000602082019050818103600083015261296281612926565b9050919050565b7f4552433732313a2061646472657373207a65726f206973206e6f74206120766160008201527f6c6964206f776e65720000000000000000000000000000000000000000000000602082015250565b60006129c5602983612035565b91506129d082612969565b604082019050919050565b600060208201905081810360008301526129f4816129b8565b9050919050565b7f6d696e74696e6720697320656e61626c65000000000000000000000000000000600082015250565b6000612a31601183612035565b9150612a3c826129fb565b602082019050919050565b60006020820190508181036000830152612a6081612a24565b9050919050565b7f4e487b7100000000000000000000000000000000000000000000000000000000600052601160045260246000fd5b6000612aa1826120e5565b9150612aac836120e5565b9250817fffffffffffffffffffffffffffffffffffffffffffffffffffffffffffffffff0483118215151615612ae557612ae4612a67565b5b828202905092915050565b7f77726f6e67206d696e742076616c756500000000000000000000000000000000600082015250565b6000612b26601083612035565b9150612b3182612af0565b602082019050919050565b60006020820190508181036000830152612b5581612b19565b9050919050565b6000612b67826120e5565b9150612b72836120e5565b9250827fffffffffffffffffffffffffffffffffffffffffffffffffffffffffffffffff03821115612ba757612ba6612a67565b5b828201905092915050565b7f736f6c6420206f75740000000000000000000000000000000000000000000000600082015250565b6000612be8600983612035565b9150612bf382612bb2565b602082019050919050565b60006020820190508181036000830152612c1781612bdb565b9050919050565b7f657863656564206d61782077616c6c6574730000000000000000000000000000600082015250565b6000612c54601283612035565b9150612c5f82612c1e565b602082019050919050565b60006020820190508181036000830152612c8381612c47565b9050919050565b6000612c95826120e5565b91507fffffffffffffffffffffffffffffffffffffffffffffffffffffffffffffffff821415612cc857612cc7612a67565b5b600182019050919050565b7f546f6b656e20646f6573206e6f74206578697374000000000000000000000000600082015250565b6000612d09601483612035565b9150612d1482612cd3565b602082019050919050565b60006020820190508181036000830152612d3881612cfc565b9050919050565b600081905092915050565b60008190508160005260206000209050919050565b60008154612d6c81612663565b612d768186612d3f565b94506001821660008114612d915760018114612da257612dd5565b60ff19831686528186019350612dd5565b612dab85612d4a565b60005b83811015612dcd57815481890152600182019150602081019050612dae565b838801955050505b50505092915050565b6000612de98261202a565b612df38185612d3f565b9350612e03818560208601612046565b80840191505092915050565b7f2e6a736f6e000000000000000000000000000000000000000000000000000000600082015250565b6000612e45600583612d3f565b9150612e5082612e0f565b600582019050919050565b6000612e678285612d5f565b9150612e738284612dde565b9150612e7e82612e38565b91508190509392505050565b7f4f776e61626c653a206e6577206f776e657220697320746865207a65726f206160008201527f6464726573730000000000000000000000000000000000000000000000000000602082015250565b6000612ee6602683612035565b9150612ef182612e8a565b604082019050919050565b60006020820190508181036000830152612f1581612ed9565b9050919050565b7f4f776e61626c653a2063616c6c6572206973206e6f7420746865206f776e6572600082015250565b6000612f52602083612035565b9150612f5d82612f1c565b602082019050919050565b60006020820190508181036000830152612f8181612f45565b9050919050565b7f4552433732313a207472616e736665722066726f6d20696e636f72726563742060008201527f6f776e6572000000000000000000000000000000000000000000000000000000602082015250565b6000612fe4602583612035565b9150612fef82612f88565b604082019050919050565b6000602082019050818103600083015261301381612fd7565b9050919050565b7f4552433732313a207472616e7366657220746f20746865207a65726f2061646460008201527f7265737300000000000000000000000000000000000000000000000000000000602082015250565b6000613076602483612035565b91506130818261301a565b604082019050919050565b600060208201905081810360008301526130a581613069565b9050919050565b60006130b7826120e5565b91506130c2836120e5565b9250828210156130d5576130d4612a67565b5b828203905092915050565b7f4552433732313a20617070726f766520746f2063616c6c657200000000000000600082015250565b6000613116601983612035565b9150613121826130e0565b602082019050919050565b6000602082019050818103600083015261314581613109565b9050919050565b7f4552433732313a207472616e7366657220746f206e6f6e20455243373231526560008201527f63656976657220696d706c656d656e7465720000000000000000000000000000602082015250565b60006131a8603283612035565b91506131b38261314c565b604082019050919050565b600060208201905081810360008301526131d78161319b565b9050919050565b7f4e487b7100000000000000000000000000000000000000000000000000000000600052601260045260246000fd5b6000613218826120e5565b9150613223836120e5565b925082613233576132326131de565b5b828204905092915050565b6000613249826120e5565b9150613254836120e5565b925082613264576132636131de565b5b828206905092915050565b7f4e487b7100000000000000000000000000000000000000000000000000000000600052603260045260246000fd5b600081519050919050565b600082825260208201905092915050565b60006132c58261329e565b6132cf81856132a9565b93506132df818560208601612046565b6132e881612079565b840191505092915050565b6000608082019050613308600083018761217a565b613315602083018661217a565b6133226040830185612210565b818103606083015261333481846132ba565b905095945050505050565b60008151905061334e81611f9b565b92915050565b60006020828403121561336a57613369611f65565b5b60006133788482850161333f565b91505092915050565b7f4552433732313a206d696e7420746f20746865207a65726f2061646472657373600082015250565b60006133b7602083612035565b91506133c282613381565b602082019050919050565b600060208201905081810360008301526133e6816133aa565b9050919050565b7f4552433732313a20746f6b656e20616c7265616479206d696e74656400000000600082015250565b6000613423601c83612035565b915061342e826133ed565b602082019050919050565b6000602082019050818103600083015261345281613416565b905091905056fea26469706673582212204dccd5581c6ba0bc51c5bd5ae8a25297364199820aa67ea06956b36efb5ef23864736f6c63430008090033",
    "linkReferences": {},
    "deployedLinkReferences": {}
}